:020000040800F2
:10000000002000203D1A000899190008A1190008D5
:1000100000000000000000000000000000000000E0
:10002000000000000000000000000000A919000806
:100030000000000000000000B3190008BD1900080E
:10004000BD1A000800000000CD190008BD1A000804
:10005000E5190008EF190008BD1A0008BD1A0008CC
:1000600000000000BD1A0008BD1A0008BD1A0008F3
:10007000BD1A0008BD1A000800000000011A00089F
:100080000000000000000000000000000000000070
:10009000191A00080000000000000000BD1A000846
:1000A00000000000BD1A0008000000000000000071
:1000B000BD1A0008BD1A0008000000000000000082
:1000C00010B5064C2378002B07D1054B002B02D02E
:1000D000044800E000BF0123237010BD1000002081
:1000E00000000000984B0008044B10B5002B03D013
:1000F0000349044800E000BF10BDC04600000000F6
:1001000014000020984B0008002243088B4274D34F
:1001100003098B425FD3030A8B4244D3030B8B4208
:1001200028D3030C8B420DD3FF22090212BA030C11
:100130008B4202D31212090265D0030B8B4219D3F2
:1001400000E0090AC30B8B4201D3CB03C01A524112
:10015000830B8B4201D38B03C01A5241430B8B425A
:1001600001D34B03C01A5241030B8B4201D30B0343
:10017000C01A5241C30A8B4201D3CB02C01A52416A
:10018000830A8B4201D38B02C01A5241430A8B422D
:1001900001D34B02C01A5241030A8B4201D30B0216
:1001A000C01A5241CDD2C3098B4201D3CB01C01A30
:1001B000524183098B4201D38B01C01A524143093A
:1001C0008B4201D34B01C01A524103098B4201D328
:1001D0000B01C01A5241C3088B4201D3CB00C01A95
:1001E000524183088B4201D38B00C01A524143080D
:1001F0008B4201D34B00C01A5241411A00D2014632
:10020000524110467047FFE701B5002000F006F8A4
:1002100002BDC0460029F7D076E770477047C04658
:1002200080B582B000AF0200FB1D1A70BB1D0A1C16
:100230001A70BB1D1B78DB10DAB2FB1D1B78012185
:100240000A40D1B2154AD154BB1D1B789B10DAB2BB
:10025000FB1D1B7801210A40D1B2104AD3180A1C99
:100260001A71BB1D1B785B10DAB2FB1D1B780121D4
:100270000A40D1B2094AD3180A1C1A72FB1D1B7816
:10028000BA1D127801210A40D1B2044AD3180A1CBF
:100290001A73C046BD4602B080BDC0462C00002087
:1002A00080B500AF80235900A023DB050122180090
:1002B00002F0BDF880239900A023DB05012218007D
:1002C00002F0B5F88023D900A023DB050122180035
:1002D00002F0ADF880231901A023DB0501221800EC
:1002E00002F0A5F8C046BD4680BD000080B582B0D2
:1002F00000AF0200FB1D1A70FB1D1B781E4AD35C69
:100300005A1E9341DBB21A0080235B011B4819007F
:1003100002F08DF8FB1D1B78174AD3181B795A1E63
:100320009341DBB21A0080239B011448190002F0AC
:100330007EF8FB1D1B78104AD3181B7A5A1E934176
:10034000DBB21A008023DB010C48190002F06FF8C1
:10035000FB1D1B78084AD3181B7B5A1E9341DBB246
:100360001A0080231B020548190002F060F8C046FD
:10037000BD4602B080BDC0462C00002000040050E5
:1003800080B582B000AF0200FB1D1A70FB1D1B7808
:10039000032B23D02BDC022B17D028DC002B02D020
:1003A000012B09D023E080235900A023DB05002284
:1003B000180002F03CF81AE080239900A023DB0526
:1003C0000022180002F033F811E08023D900A023A6
:1003D000DB050022180002F02AF808E0802319014A
:1003E000A023DB050022180002F021F8C046C04619
:1003F000BD4602B080BD000080B586B000AF391D9B
:10040000274B0022180003F08DF83900244B0022FE
:10041000180003F079F93B1D1B780A211800FFF73B
:1004200073FE0300DAB21F4B1A703B1D1B780A21C2
:100430001800FFF7EFFE0B00DAB21B4B1A703B1DE2
:100440005B780A211800FFF75FFE0300DAB2174B52
:100450001A703B1D5B780A211800FFF7DBFE0B00CA
:10046000DAB2134B1A700F4B1B7819000020FFF7FC
:10047000D7FE0D4B1B7819000120FFF7D1FE0B4B67
:100480001B7819000220FFF7CBFE094B1B781900DF
:100490000320FFF7C5FEC046BD4606B080BDC0467E
:1004A000880000203C0000203D0000203E0000208D
:1004B0003F00002080B586B000AF391D274B0022D9
:1004C000180003F02FF83900244B0022180003F025
:1004D0001BF93B001B780A211800FFF715FE0300EB
:1004E000DAB21F4B1A703B001B780A211800FFF785
:1004F00091FE0B00DAB21B4B1A703B009B780A216D
:100500001800FFF701FE0300DAB2174B1A703B0028
:100510009B780A211800FFF77DFE0B00DAB2134B1F
:100520001A700F4B1B7819000020FFF779FE0D4B56
:100530001B7819000120FFF773FE0B4B1B78190085
:100540000220FFF76DFE094B1B7819000320FFF70F
:1005500067FEC046BD4606B080BDC046880000208C
:100560004000002041000020420000204300002005
:1005700080B586B000AF391D274B0022180002F06D
:10058000D1FF3900244B0022180003F0BDF83B00D6
:100590005B780A211800FFF7B7FD0300DAB21F4BA2
:1005A0001A703B005B780A211800FFF733FE0B003E
:1005B000DAB21B4B1A703B00DB780A211800FFF7F8
:1005C000A3FD0300DAB2174B1A703B00DB780A2157
:1005D0001800FFF71FFE0B00DAB2134B1A700F4B17
:1005E0001B7819000020FFF71BFE0D4B1B7819002C
:1005F0000120FFF715FE0B4B1B7819000220FFF7B7
:100600000FFE094B1B7819000320FFF709FEC046B7
:10061000BD4606B080BDC0468800002046000020D0
:1006200047000020440000204500002080B586B02F
:1006300000AF391D254B0022180002F073FF39006E
:10064000224B0022180003F05FF83B1D1A78204B64
:100650001A703B1D5A781F4B1A703B001A781E4BBC
:100660001A703B009A781D4B1A703B005A781C4B4D
:100670001A703B00DA781B4B1A701B4B1B78032B4C
:1006800014D01FDC022B0DD01CDC002B02D0012B60
:1006900004D017E0154B01221A7013E0134B03220C
:1006A0001A700FE0114B05221A700BE0104B1A78EC
:1006B000104B1A70104B1A78104B1A700B4B072204
:1006C0001A70C046C046BD4606B080BD88000020F6
:1006D00048000020490000204A0000204B00002074
:1006E0004C0000204D000020000000202C010020C4
:1006F0004E000020500000204F000020510000203C
:1007000080B500AF174B1B78082B24D89A00164BE6
:10071000D3181B689F46134B02221A701FE0114B1F
:1007200001221A701BE00F4B04221A7017E00D4BC8
:1007300003221A7013E00B4B06221A700FE0094BCC
:1007400005221A700BE0074B08221A7007E0054BD0
:1007500007221A7003E0034B00221A70C046C046FD
:10076000BD4680BD2C010020B04B000880B500AF15
:10077000464B1B78082B00D974E09A00444BD318E1
:100780001B689F46434B1B780133DAB2414B1A700A
:10079000404B1B78172B67D93E4B00221A7063E041
:1007A0003D4B1B780133DAB23B4B1A703A4B1B7846
:1007B0003B2B5BD9384B00221A7057E0374B1B7824
:1007C0000133DAB2354B1A70344B1B78072B4FD9F3
:1007D000324B01221A704BE0314B1B780133DAB2F5
:1007E0002F4B1A702E4B1B781F2B43D92C4B0122F9
:1007F0001A703FE02B4B1B780133DAB2294B1A7089
:10080000284B1B780C2B37D9264B01221A7033E06A
:10081000254B1B780133DAB2234B1A70224B1B781D
:10082000632B2BD9204B00221A7027E01F4B1B781B
:100830000133DAB21D4B1A701C4B1B78172B1FD9D2
:100840001A4B00221A701BE0194B1B780133DAB2E5
:10085000174B1A70164B1B783B2B13D9144B0022E5
:100860001A700FE0C0460EE0C0460CE0C0460AE039
:10087000C04608E0C04606E0C04604E0C04602E0CC
:10088000C04600E0C046C046BD4680BD2C010020E9
:10089000D44B000848000020490000204A000020F6
:1008A0004B0000204C0000204D0000205000002094
:1008B0005100002080B500AF6B4B1B78032B00D19B
:1008C0009DE000DDCCE0022B68D000DDC8E0002B0D
:1008D00002D0012B31D0C3E0644B1B780A211800F1
:1008E000FFF712FC0300DBB219000020FFF798FCB1
:1008F0005E4B1B780A211800FFF78CFC0B00DBB263
:1009000019000120FFF78CFC594B1B780A211800B5
:10091000FFF7FAFB0300DBB219000220FFF780FCAF
:10092000534B1B780A211800FFF774FC0B00DBB255
:1009300019000320FFF774FC92E04E4B1B780A214C
:100940001800FFF7E1FB0300DBB219000020FFF7FE
:1009500067FC484B1B780A211800FFF75BFC0B0073
:10096000DBB219000120FFF75BFC434B1B780A2127
:100970001800FFF7C9FB0300DBB219000220FFF7E4
:100980004FFC3D4B1B780A211800FFF743FC0B007E
:10099000DBB219000320FFF743FC61E0374B1B7803
:1009A0000A211800FFF7B0FB0300DBB2190000209A
:1009B000FFF736FC314B1B780A211800FFF72AFCA1
:1009C0000B00DBB219000120FFF72AFC2C4B1B782F
:1009D0000A211800FFF798FB0300DBB21900022080
:1009E000FFF71EFC264B1B780A211800FFF712FCAC
:1009F0000B00DBB219000320FFF712FC30E0214BA3
:100A00001B780A211800FFF77FFB0300DBB21900F7
:100A10000020FFF705FC1B4B1B780A211800FFF78D
:100A2000F9FB0B00DBB219000120FFF7F9FB164BB5
:100A30001B780A211800FFF767FB0300DBB21900DF
:100A40000220FFF7EDFB104B1B780A211800FFF77F
:100A5000E1FB0B00DBB219000320FFF7E1FBC0460E
:100A6000C046BD4680BDC0460000002048000020B2
:100A7000490000204A0000204B0000204C000020CC
:100A80004D000020500000205100002080B500AF34
:100A9000074B0421180003F0A9FA142001F080F894
:100AA000034B0421180003F025FBC046BD4680BD62
:100AB000EC00002080B500AF1E4B1B780A21180007
:100AC000FFF722FB0300DBB219000020FFF7A8FBB1
:100AD000184B1B780A211800FFF79CFB0B00DBB2B8
:100AE00019000120FFF79CFB134B1B780A2118000B
:100AF000FFF70AFB0300DBB219000220FFF790FBAF
:100B00000D4B1B780A211800FFF784FB0B00DBB2AA
:100B100019000320FFF784FB084B1B78002B03D040
:100B2000074B01221A7002E0054B00221A70C046E2
:100B3000BD4680BD4E0000204F0000205200002026
:100B40002C000020B0B596B000AF00F0B9FF00F067
:100B50000FFB00F0F3FC00F081FB00F01BFC00F049
:100B60006DFCC04B180003F08FF9BF4B1B6832229D
:100B70009A63BE4B1A78BE4B1A70BE4B1A78BE4BA6
:100B80001A70BE4B1B78002B0ED0BD4B1B78002B70
:100B90000AD0BA4B00221A70B34B0421180003F09C
:100BA000A9FAB74B00221A70B44B1B78002B5BD00C
:100BB00000F0ECFF03007B65B24B1B687A6DD31A23
:100BC000B14A934208D9AD4B00221A70A64B0421BA
:100BD000180003F08FFA47E0AC4B1B78002B17D0BE
:100BE000AB4B1B687A6DD31A4F2B3DD99E4B04211A
:100BF000180003F07FFAA54B00221A70A44B7A6DFF
:100C00001A60A44B1B780133DAB2A24B1A702BE0A6
:100C1000A04B1B78032B11D89D4B1B687A6DD31A00
:100C20004F2B21D9904B0421180003F0DFF9974B8B
:100C300001221A70964B7A6D1A6015E0944B1B686E
:100C40007A6DD21AFA235B009A420DD3914B00229F
:100C50001A70854B0421180003F0C8F98B4B012250
:100C60001A708B4B7A6D1A608B4B1B78002B37D127
:100C70008A4B0421180001F0BDFB031E2DD100F0AA
:100C800085FF03003B657E4B9B78002B28D1844B6E
:100C90009B683A6DD31A642B22D9824B1B78032BA5
:100CA00005D0804B03221A70FFF704FF04E07D4B50
:100CB00000221A70FFF7A0FB7B4B01221A7000F094
:100CC00065FF0200794B1A60FFF7E0FE6C4B0122D2
:100CD0009A70734B3A6D9A6002E0694B00229A70E9
:100CE0006D4B1B78002B71D16E4B1B78032B6DD194
:100CF0006A4B0221180001F07DFB031E63D100F056
:100D000045FF0300FB645E4B5B78002B5ED1644BB8
:100D10005B68FA6CD31A642B58D9654B1B785A421E
:100D20005341DBB21A00624B1A70614B1B78002BE7
:100D300036D03B1D180028231A00002103F000FFC5
:100D40004B4B1A783B1D1A704B4B1A783B1D5A704F
:100D50003B1D00229A703B1D00225A603B1D002261
:100D6000DA603B1D00221A613B1D802212065A6187
:100D70003B1D00229A613B1D0022DA613B1D2022AF
:100D8000012199543B1D802252005A62391D494B62
:100D90000022180002F008FD474B01221A7009E0FA
:100DA00080235A00434B1100180002F05FFE424BB3
:100DB00000221A70FFF76AFE314B01225A70384B3D
:100DC000FA6C5A6002E02E4B00225A70324B1B78AC
:100DD000002B00D1F7E0344B01221A70FFF76AFDB7
:100DE0002E4B0221180001F005FB031E16D100F066
:100DF000CDFE0300BB64224B5B78002B11D1284B46
:100E00005B68BA6CD31A642B0BD9FFF7AFFC1C4B91
:100E100001225A70224BBA6C5A6002E0184B002231
:100E20005A701E4B0421180001F0E4FA031E45D14C
:100E300000F0ACFE03007B64114B9B78002B40D18B
:100E4000174B9B687A6CD31A322B3AD9FFF758FCB0
:100E5000FFF71CFE0A4B01229A70114B7A6C9A60C4
:100E60002FE0C046AC000020EC0000200000080885
:100E70004E000020010008084F0000205300002011
:100E800074000020540000201F4E00005D00002070
:100E9000580000205C0000202C01002000040050BD
:100EA0007800002000000020640000206000002086
:100EB00052000020880000202C000020934B0022CC
:100EC0009A70924B1B78002B00D11DE1904B0121B1
:100ED000180001F08FFA031E00D015E100F056FE55
:100EE00002008C4B1B68D21AFA239B009A4200D254
:100EF0000AE130257919884B0022180002F012FB14
:100F00002C243919844B0022180002F0FDFB834B7E
:100F10001A7829007B181A70814B1A787B185A703E
:100F2000804B1A783B191A707F4B1A783B199A70CC
:100F30007E4B1A783B195A707D4B1A783B19DA7040
:100F40007918754B0022180002F042FA3919724BD9
:100F50000022180002F044FB764B1B78032B1BD1B8
:100F6000754B1A78754B1A70754B1A78754B1A7049
:100F700001F042F8714B1B781A00734B19000020E6
:100F800001F076F86F4B1B781A00704B19000020A7
:100F900001F06EF801F05EF86D4B00221A706D4B97
:100FA00000221A70594B00221A705A4B00221A6004
:100FB000694B01221A7000F0E9FD0200674B1A60CC
:100FC000FFF764FDA0E0514B1B78002B4CD0504B39
:100FD0000121180001F00EFA031E18D15E4B1B7898
:100FE000002B41D000F0D2FD02004A4B1B68D21A00
:100FF000FA239B009A4237D3444B00221A70554B78
:1010000001221A70FFF742FDFFF710FB2CE0524B54
:1010100001221A7000F0BAFD0200504B1A60454BD5
:101020001B78032B1CD01CDC022B11D019DC002BED
:1010300002D0012B06D014E03E4B01221A70FFF7BC
:1010400039FA0EE03B4B02221A70FFF791FA08E0E2
:10105000384B00221A70FFF7CFF9FFF717FD00E0B9
:10106000C0462A4B00221A70394B1B78002B00D047
:1010700087E5394B1B78002B00D182E500F086FD17
:101080000200364B1B68D31A354A934200D878E5E4
:10109000314B00221A70FFF703F9264B02221A7017
:1010A00000F0A2FD2F4B180002F032FF2E4B04215E
:1010B000180003F01FF82D4B9A6B2C4B01218A432B
:1010C0009A632A4B5A6B294B04218A435A6301F0D5
:1010D0005FFA01F04FFA0121012001F0EFF900F071
:1010E00047F800F08FFD214B9A6B204B01210A43FA
:1010F0009A631E4B5A6B1D4B04210A435A63194BCA
:10110000180002F0C1FE3CE5C0463AE5740000203C
:1011100000040050680000208800002048000020E3
:10112000490000204A0000204B0000204C00002015
:101130004D00002000000020500000204E00002044
:10114000510000204F00002000000808010008089E
:101150002C0100208400002064000020600000209A
:1011600087130000AC000020EC00002000100240BB
:1011700090B599B000AF2C243B19180034231A0005
:10118000002103F0DDFC1823FB18180014231A00BB
:10119000002103F0D5FC3B00180018231A000021A1
:1011A00003F0CEFC2A4B1B682A4A1A40284B8021A8
:1011B00009010A431A6001F073F9274B1A6D264B97
:1011C00024490A401A653B1906221A603B198022FD
:1011D00052009A603B190122DA603B1910221A6111
:1011E0003B1900225A623B19180001F0DFF9031E77
:1011F00001D000F01FFB18217B180F221A607B180A
:1012000001225A607B1800229A607B180022DA6063
:101210007B1800221A617B180021180001F042FDA2
:10122000031E01D000F006FB3B0020221A603B00A9
:10123000802252025A603B00180001F001FF031E99
:1012400001D000F0F7FAC046BD4619B090BDC046C7
:1012500000700040FFE7FFFF0010024080B590B033
:1012600000AF2C23FB18180014231A00002103F0F0
:1012700067FC2823FB1800221A603B001800282373
:101280001A00002103F05CFC404B414A1A603F4BBE
:1012900000225A603D4B7F229A603C4BFF22DA606D
:1012A0003A4B00221A61394B00225A61374B002217
:1012B0009A61364B0022DA61344B180001F0ECFFE2
:1012C000031E01D000F0B6FA2C217B1800221A7000
:1012D0007B1800225A707B1800229A707B1800221B
:1012E000DA607B1800221A617918284B0022180056
:1012F00002F06EF8031E01D000F09CFA28217B1842
:1013000001221A707B1801225A707B1801229A70F0
:101310007B180022DA7079181C4B0022180002F0AA
:101320005FF9031E01D000F085FA3B0000221A701D
:101330003B0000225A703B0000229A703B000022C2
:101340005A603B000022DA603B0000221A613B0039
:1013500000225A613B0000229A613B000022DA61C0
:101360003B002022012199543B00802252005A6206
:101370003900064B0022180002F016FA031E01D0B5
:1013800000F058FAC046BD4610B080BD880000206D
:101390000028004080B586B000AF0823FB18180075
:1013A00010231A00002103F0CBFB3B001800082398
:1013B0001A00002103F0C4FB1E4B8022D2051A60E4
:1013C0001C4B0F225A601B4B00229A60194B1A4A81
:1013D000DA60184B00221A61164B80225A61154BB5
:1013E000180002F011FD031E01D000F023FA0821BD
:1013F0007B18802252011A607A180E4B11001800D7
:1014000003F048F8031E01D000F014FA3B0000225C
:101410001A603B0000225A603A00064B1100180087
:1014200003F03EFB031E01D000F004FAC046BD46A7
:1014300006B080BDAC000020E703000080B58AB094
:1014400000AF1823FB18180010231A00002103F026
:1014500077FB1023FB18180008231A00002103F063
:101460006FFB3B00180010231A00002103F068FBFB
:10147000304B314A1A602F4B07225A602D4B002205
:101480009A602C4BF422FF32DA602A4B00221A6158
:10149000284B80225A61274B180002F0B5FC031E2E
:1014A00001D000F0C7F918217B18802252011A6080
:1014B0007A18204B1100180002F0ECFF031E01D037
:1014C00000F0B8F91B4B180002F048FD031E01D0D4
:1014D00000F0B0F910217B1800221A607B1800225E
:1014E0005A607A18134B1100180003F0D9FA031E42
:1014F00001D000F09FF93B0060221A603B000022FF
:101500005A603B0000229A603B000022DA603900FA
:10151000084B0422180002F0F7FE031E01D000F071
:1015200089F9044B180000F0FBF9C046BD460AB02B
:1015300080BDC046EC0000200008014090B58BB093
:1015400000AF14243B19180014231A00002103F0E3
:10155000F7FA694BDA6A684B04210A43DA62664B90
:10156000DB6A042213403B613B69634BDA6A624BDE
:1015700080210A43DA62604BDB6A80221340FB6001
:10158000FB685D4BDA6A5C4B01210A43DA625A4B15
:10159000DB6A01221340BB60BB68574BDA6A564BCB
:1015A00002210A43DA62544BDB6A022213407B6059
:1015B0007B68F0231B0251480022190000F037FF1E
:1015C000F0231901A023DB050122180000F02FFFF2
:1015D0003B194B4A1A603B1903225A603B190022FF
:1015E0009A603B19474A1900100000F095FD3B191D
:1015F00003221A603B1903225A603B1900229A60A9
:101600003B19414A1900100000F086FD3B193F4A82
:101610001A603B1903225A603B1900229A603A195A
:10162000A023DB051100180000F076FD21007B18D7
:1016300001221A607B18842292035A600C003B1925
:1016400001229A603B192D4A1900100000F064FD38
:101650003B1906221A603B1900225A603B190122ED
:101660009A603B19254A1900100000F055FD3B19FE
:10167000274A1A603B1903225A603B1900229A60DC
:101680003B191E4A1900100000F046FD21007B188E
:10169000F02212021A600C003B1901225A603B1919
:1016A00000229A603B190222DA603B19134A1900A2
:1016B000100000F031FD21007B18F02212011A60A9
:1016C0007B1801225A607B1800229A607B18022244
:1016D000DA607A18A023DB051100180000F01CFD69
:1016E00000220021052000F047FB052000F059FBF7
:1016F000C046BD460BB090BD001002400004005033
:101700000120000000080050001C0050F79000006D
:10171000F80F000080B582B000AF78607B681A686F
:101720008023DB059A4223D1134B1B78002B02D177
:10173000FEF7B6FD1CE0FEF7B3FD104B1B78DBB2E5
:101740001800FEF7D3FD0D4B1B78DBB21800FEF737
:1017500017FE0A4B1B78DBB20133DAB2074B1A7063
:10176000064B1B78DBB2032B02D9044B00221A7004
:10177000BD4602B080BDC046640000202D0100209F
:1017800080B584B000AF0200BB1D1A80BB1D1B8852
:10179000012B14D100F0FAF90300FB60094B1B6820
:1017A000FA68D31A632B09D9064BFA681A60064BFC
:1017B000FA681A60054B01221A7000E0C046BD4667
:1017C00004B080BD78000020680000207400002074
:1017D00080B582B000AF78600F4B01221A7000F024
:1017E000D5F902000D4B1A600D4B01221A7000F062
:1017F000CDF902000B4B1A6000F0C8F902000A4B49
:101800001A600A4B00221A70094B00221A70C04657
:10181000BD4602B080BDC0466400002060000020CC
:101820005300002054000020580000205C000020DD
:101830005D00002080B500AF72B6C046C046FDE72F
:1018400080B500AF0B4B5A6B0A4B01210A435A6318
:10185000084B9A6B074B802149050A439A63002283
:101860000021042000F088FA042000F09AFAC04613
:10187000BD4680BD0010024080B582B000AF7860E8
:101880007B681B680A4A93420ED10A4B1A6D094BBA
:101890008021C9020A431A6500220021022000F0BB
:1018A0006BFA022000F07DFAC046BD4602B080BD52
:1018B000002800400010024080B582B000AF786080
:1018C0007B681A688023DB059A420ED1124B9A6B13
:1018D000114B01210A439A63002200210F2000F0DE
:1018E0004BFA0F2000F05DFA12E07B681B680B4A90
:1018F00093420DD1084B5A6B074B04210A435A639C
:1019000000220021142000F037FA142000F049FAD8
:10191000C046BD4602B080BD001002400008014034
:1019200090B589B000AF78600C243B1918001423DF
:101930001A00002103F004F97B681B68144A9342E3
:1019400022D1144BDA6A134B01210A43DA62114B9C
:10195000DB6A01221340BB60BB6821007B180822B0
:101960001A607B1802225A607B1802229A607B1848
:101970000122DA607B1800221A617A18A023DB05A5
:101980001100180000F0C8FBC046BD4609B090BD6C
:10199000000801400010024080B500AFC046FDE7DE
:1019A00080B500AFC046FDE780B500AFC046BD467C
:1019B00080BD80B500AFC046BD4680BD80B500AFDC
:1019C00000F0D2F8C046BD4680BD000080B500AF33
:1019D000034B180002F0ECF8C046BD4680BDC0467F
:1019E0008800002080B500AFC046BD4680BD80B5F0
:1019F00000AF012000F038FDC046BD4680BD0000AC
:101A000080B500AF034B180002F0B2FBC046BD46E4
:101A100080BDC046AC00002080B500AF034B18006D
:101A200002F0A6FBC046BD4680BDC046EC000020CB
:101A300080B500AFC046BD4680BD00001348854656
:101A4000FFF7F6FF12480168090E124A914205D1CC
:101A500011481249016012481249016012481349A5
:101A6000134A002302E0D458C4500433C4188C42F3
:101A7000F9D3104A104C002301E013600432A24253
:101A8000FBD303F065F8FFF75DF8FEE700200020C8
:101A9000040000001F00000034100240010000009C
:101AA00000000140000000000000002010000020A5
:101AB0001C4C0008100000204C010020FEE7000034
:101AC00080B582B000AFFB1D00221A700B4B1A6864
:101AD0000A4B40210A431A60032000F011F8031E4C
:101AE00003D0FB1D01221A7001E0FFF7A9FEFB1DC8
:101AF0001B781800BD4602B080BDC04600200240E1
:101B000090B583B000AF7860144B1C68144B1B7801
:101B10001900FA239800FEF7F7FA030019002000D5
:101B2000FEF7F2FA0300180000F04BF9031E01D093
:101B300001230FE07B68032B0BD8796801235B42FC
:101B40000022180000F018F9064B7A681A6000238A
:101B500000E001231800BD4603B090BD0400002042
:101B60000C0000200800002080B500AF054B1B785A
:101B70001A00054B1B68D218034B1A60C046BD46BD
:101B800080BDC0460C0000203001002080B500AFB1
:101B9000024B1B681800BD4680BDC04630010020C6
:101BA00080B584B000AF7860FFF7F0FF0300BB6042
:101BB0007B68FB60FB68013305D00A4B1B781A0079
:101BC000FB689B18FB60C046FFF7E0FF0200BB68A4
:101BD000D31AFA689A42F7D8C046C046BD4604B048
:101BE00080BDC0460C00002080B500AF044B1A68D1
:101BF000034B02218A431A60C046BD4680BDC046E1
:101C000010E000E080B500AF044B1A68034B0221DE
:101C10000A431A60C046BD4680BDC04610E000E0E1
:101C200080B582B000AF0200FB1D1A70FB1D1B784F
:101C30007F2B09D8FB1D1B781A001F231A40044B69
:101C4000012191400A001A60C046BD4602B080BD25
:101C500000E100E090B583B000AF02003960FB1DE9
:101C60001A70FB1D1B787F2B28D82F4AFB1D1B7871
:101C70005BB29B08C0339B009B58FA1D1278110081
:101C800003220A40D200FF2191400A00D2431A40A9
:101C900011003B689B01FF221A40FB1D1B781800B6
:101CA00003230340DB009A401F48FB1D1B785BB2F7
:101CB0009B080A43C0339B001A5031E01B4AFB1DAE
:101CC0001B7819000F230B40083B9B0806339B0031
:101CD000D31804331B68FA1D1278110003220A403E
:101CE000D200FF2191400A00D2431A4011003B6804
:101CF0009B01FF221A40FB1D1B78180003230340A1
:101D0000DB009A400948FB1D1B781C000F23234071
:101D1000083B9B080A4306339B00C31804331A6030
:101D2000C046BD4603B090BD00E100E000ED00E01C
:101D300080B582B000AF78607B685A1E80235B0458
:101D40009A4201D3012310E00A4B7A68013A5A60A3
:101D500001235B4203211800FFF77CFF054B0022A3
:101D60009A60044B07221A6000231800BD4602B097
:101D700080BDC04610E000E080B584B000AFB9601F
:101D80007A600F217B18021C1A70BA687B181B78C6
:101D90005BB211001800FFF75DFFC046BD4604B0FE
:101DA00080BD80B582B000AF0200FB1D1A70FB1D24
:101DB0001B785BB21800FFF733FFC046BD4602B088
:101DC00080BD80B582B000AF78607B681800FFF7F7
:101DD000AFFF03001800BD4602B080BD80B584B0DF
:101DE00000AF7860FFF7D2FE0300FB600FE07B6876
:101DF00001330CD07B68002B07D0FFF7C7FE020031
:101E0000FB68D31A7A689A4201D2032352E02B4B23
:101E10009B6901221340012BE9D0284B9B690222C8
:101E20001340022B02D1254B02229A61234B9A695F
:101E300080235B001A4080235B009A4235D01F4B01
:101E40009A6980239B001A4080239B009A422CD0E1
:101E50001A4B9A698023DB001A408023DB009A42E8
:101E600023D0164B9A6980231B011A4080231B0143
:101E70009A421AD0114B9A6980239B011A40802301
:101E80009B019A4211D00D4B9A6980239B021A4004
:101E900080239B029A4208D0084B9A6980235B02F8
:101EA0001A4080235B029A4203D100F009F8012313
:101EB00000E000231800BD4604B080BD00200240B1
:101EC00080B582B000AF00237B60494B9A698023C4
:101ED0005B001A4080235B009A420AD1454B5B6944
:101EE00002221A43434B5A617B68802252001343FB
:101EF0007B603F4B9A6980239B001A4080239B00A4
:101F00009A420AD13B4B5B6901221A43394B5A6111
:101F10007B688022920013437B60354B9A69802353
:101F2000DB001A408023DB009A420AD1314B5B6907
:101F300008221A432F4B5A617B688022D200134338
:101F40007B602B4B9A6980231B011A4080231B0165
:101F50009A420AD1274B5B6904221A43254B5A61E6
:101F60007B688022120113437B60214B9A69802396
:101F70009B011A4080239B019A420AD11D4B5B6949
:101F800010221A431B4B5A617B6880229201134333
:101F90007B60174B9A6980239B021A4080239B0227
:101FA0009A4209D1134B5B6920221A43114B5A61A3
:101FB0007B68202213437B600D4B9A6980235B0270
:101FC0001A4080235B029A420AD10A4B5B69402285
:101FD0001A43084B5A617B688022520213437B608C
:101FE000034B7A689A61C046BD4602B080BDC046C8
:101FF000002002403401002080B584B000AF124BB5
:102000005B680122134019D0EFF310837B607B687B
:10201000FB6072B6C0460C4B0C4ADA600A4B0C4AA5
:10202000DA60FB68BB60BB6883F31088C046064B70
:102030005B680122134001D0012300E00023180057
:10204000BD4604B080BDC04600200240EFCDAB8944
:102050000504030280B500AF044B5A68034B01210D
:102060000A435A6000231800BD4680BD002002408C
:10207000B0B586B000AFF860B9607A60244B1B7CC5
:10208000012B01D102233EE0214B01221A741725B6
:102090007C19204B1800FFF7A1FE030023707B1969
:1020A0001B78002B29D11A4B00225A61FB68022BA6
:1020B00003D1BB687A681A6013E0FB68012B04D176
:1020C000BB687A6892B21A800BE0FB68002B04D1DF
:1020D000BB687A68D2B21A7003E01723FB1801229A
:1020E0001A701722BB181B78002B06D1BC18094B9D
:1020F0001800FFF773FE03002370054B00221A74CB
:102100001723FB181B781800BD4606B0B0BDC046AB
:102110003401002050C3000080B586B000AF786065
:10212000396000237B610023FB6000233B6149E1B0
:102130003B681B6801217A6991400A001340FB60EB
:10214000FB68002B00D13AE13B685B680322134037
:10215000012B05D03B685B6803221340022B30D172
:102160007B689B683B617B695B0003229A4013009C
:10217000DA433B6913403B613B68DA687B695B008B
:102180009A4013003A6913433B617B683A699A604D
:102190007B685B683B6101227B699A401300DA43EC
:1021A0003B6913403B613B685B681B0901221A4095
:1021B0007B699A4013003A6913433B617B683A6933
:1021C0005A603B685B6803221340032B17D07B687F
:1021D000DB683B617B695B0003229A401300DA43B2
:1021E0003B6913403B613B689A687B695B009A409E
:1021F00013003A6913433B617B683A69DA603B68D4
:102200005B6803221340022B23D17B69DA087B68C9
:1022100008329200D3583B617B69072213409B0030
:102220000F229A401300DA433B6913403B613B683D
:102230001A697B6907210B409B009A4013003A6999
:1022400013433B617B69DA087B6808329200396985
:10225000D1507B681B683B617B695B0003229A401D
:102260001300DA433B6913403B613B685B68032220
:102270001A407B695B009A4013003A6913433B6143
:102280007B683A691A603B685A68C0239B02134016
:1022900000D194E0514B5A6B504B01210A435A63D1
:1022A0004F4A7B699B0802339B009B583B617B69CB
:1022B000032213409B000F229A401300DA433B692C
:1022C00013403B617A68A023DB059A4213D07B68F8
:1022D000444A93420DD07B68434A934207D07B68BF
:1022E000424A934201D1052306E0062304E002237B
:1022F00002E0012300E000237A6903210A409200F2
:1023000093403A6913433B6135497B699B0802332B
:102310009B003A695A50364B9B683B61FB68DA4335
:102320003B6913403B613B685A6880235B03134061
:1023300003D03A69FB6813433B612D4B3A699A60BD
:102340002B4BDB683B61FB68DA433B6913403B6125
:102350003B685A6880239B03134003D03A69FB68AB
:1023600013433B61224B3A69DA60214B5B683B6166
:10237000FB68DA433B6913403B613B685A68802342
:102380009B02134003D03A69FB6813433B61184B2F
:102390003A695A60164B1B683B61FB68DA433B693C
:1023A00013403B613B685A6880235B02134003D0B3
:1023B0003A69FB6813433B610D4B3A691A607B69CC
:1023C00001337B613B681A687B69DA40131E00D0D9
:1023D000AEE6C046C046BD4606B080BD0010024015
:1023E000000001400004005000080050001C005094
:1023F0000004014080B584B000AF78600A00BB1CC7
:102400001A807B681B69BA1C1288134004D00F2302
:10241000FB1801221A7003E00F23FB1800221A7028
:102420000F23FB181B781800BD4604B080BD80B593
:1024300082B000AF786008001100BB1C021C1A803B
:102440007B1C0A1C1A707B1C1B78002B04D0BB1C45
:102450001A887B689A6103E0BB1C1A887B689A62C1
:10246000C046BD4602B080BD80B582B000AF02005C
:10247000BB1D1A80094B5B69BA1D1288134008D036
:10248000064BBA1D12885A61BB1D1B881800FFF746
:1024900077F9C046BD4602B080BDC0460004014089
:1024A00080B500AF044B1A68034B802149000A43F2
:1024B0001A60C046BD4680BD0070004080B586B041
:1024C00000AF78600A00FB1C1A7000237B61254B6B
:1024D0001A6880239B0013403B61234B1B6A012237
:1024E0001340FB603B69002B08D0FB68002B05D034
:1024F0001C4B1A681B4B1D490A401A60194B1B687C
:102500007B617B69032293437B617A697B68134318
:102510007B61144B7A691A60154B1A69144B0421BC
:102520000A431A61FB1C1B78012B01D130BF02E06A
:1025300040BF20BF20BF0E4B1A690D4B04218A43B8
:102540001A613B69002B09D0FB68002B06D0054BB4
:102550001A68044B802189000A431A60C046BD46B0
:1025600006B080BD0070004000000140FFFDFFFF8D
:1025700000ED00E080B500AF044B1A68034B8021EA
:10258000C9000A431A60C046BD4680BD00700040C5
:1025900080B500AF044B1A68034B802189000A43C1
:1025A0001A60C046BD4680BD00700040B0B58AB01C
:1025B00000AF78607B68002B02D1012300F06CFB38
:1025C000C84BDB680C221340FB61C64BDA688023E2
:1025D0005B021340BB617B681B680122134000D182
:1025E0007DE0FB69082B07D0FB690C2B12D1BA697F
:1025F00080235B029A420DD1BA4B1A6880239B025A
:10260000134000D16AE07B685B68002B66D1012330
:1026100000F042FB7B685A6880235B029A4207D134
:10262000B04B1A68AF4B802149020A431A6027E079
:102630007B685A68A023DB029A420ED1A94B1A6824
:10264000A84B8021C9020A431A60A64B1A68A54B01
:10265000802149020A431A6012E0A24B1A68A14B7A
:10266000A1490A401A609F4B1A6880235B021340FD
:10267000FB60FB689B4B1A689A4B9C490A401A60A6
:102680007B685B68002B14D0FFF780FA03007B6146
:1026900008E0FFF77BFA02007B69D31A642B01D9AB
:1026A0000323F9E28F4B1A6880239B021340F0D07A
:1026B00015E0FFF76BFA03007B6108E0FFF766FAAD
:1026C00002007B69D31A642B01D90323E4E2854B12
:1026D0001A6880239B021340F0D100E0C0467B685B
:1026E0001B680222134000D199E07B68DB687B62A3
:1026F0007B6A2022134009D07A4B1A68794B20213B
:102700000A431A607B6A202293437B62FB69042B95
:1027100005D0FB690C2B3ED1BB69002B3BD1714B23
:102720001B680422134004D07B6A002B01D10123D3
:10273000B2E26C4B5B686E4A134019007B681B6900
:102740001A02684B0A435A60664B1B68092293437E
:102750001900644B7A6A0A431A6000F0EBFB01002F
:10276000604BDB681B090F221340624AD35C0A00EE
:10277000DA40614B1A60614B1B6813257C19180005
:10278000FFF7BEF9030023707B191B78002B46D09E
:102790007B191B7880E27B6A002B27D0514B1B688A
:1027A0000922934319004F4B7A6A0A431A60FFF7D4
:1027B000EDF903007B6108E0FFF7E8F902007B69AF
:1027C000D31A022B01D9032366E2464B1B6804226D
:1027D0001340F1D0434B5B68454A134019007B68B6
:1027E0001B691A023F4B0A435A6018E03D4B1A68B6
:1027F0003C4B01218A431A60FFF7C8F903007B6153
:1028000008E0FFF7C3F902007B69D31A022B01D954
:10281000032341E2334B1B6804221340F1D17B6850
:102820001B681022134000D1A1E0FB69002B40D1AE
:102830002C4B1A6880239B00134005D07B689B6952
:10284000002B01D1012327E2264B5B682C4A134061
:1028500019007B681A6A234B0A435A60214B5B6854
:102860001B02190A7B68DB691A061E4B0A435A6071
:102870007B681B6A5B0B0133802212029A40194B62
:10288000DB681B090F210B401A49CB5CDA401A4B5D
:102890001A601A4B1B6813257C191800FFF730F9D2
:1028A000030023707B191B78002B60D07B191B78E9
:1028B000F2E17B689B69002B3FD00A4B1A68094BF9
:1028C000802149000A431A60FFF760F903007B6129
:1028D00018E0FFF75BF902007B69D31A022B11D9CC
:1028E0000323D9E100100240FFFFFEFFFFFFFBFFC3
:1028F000FFE0FFFFF84B0008040000200800002064
:10290000FF1FFFFFC94B1A6880239B001340E0D0D4
:10291000C64B5B68C64A134019007B681A6AC34BF2
:102920000A435A60C14B5B681B02190A7B68DB696A
:102930001A06BE4B0A435A6019E0BC4B1A68BB4BDF
:10294000BC490A401A60FFF721F903007B6108E0E7
:10295000FFF71CF902007B69D31A022B01D903236C
:102960009AE1B24B1A6880239B001340F0D17B6838
:102970001B680822134036D07B685B69002B19D096
:10298000AA4B1A6DA94B01210A431A65FFF7FEF8FD
:1029900003007B6108E0FFF7F9F802007B69D31AB6
:1029A000022B01D9032377E1A04B1B6D02221340B8
:1029B000F1D018E09D4B1A6D9C4B01218A431A659A
:1029C000FFF7E4F803007B6108E0FFF7DFF802009F
:1029D0007B69D31A022B01D903235DE1934B1B6D55
:1029E00002221340F1D17B681B680422134000D1FE
:1029F000AEE023203B1800221A708C4B9A6B802388
:102A00005B05134009D1894B9A6B884B802149059E
:102A10000A439A633B1801221A70874B1A68802375
:102A20005B0013401AD1844B1A68834B8021490004
:102A30000A431A60FFF7AAF803007B6108E0FFF77A
:102A4000A5F802007B69D31A642B01D9032323E183
:102A5000794B1A6880235B001340F0D07B689A683A
:102A600080235B009A4207D1704B1A6D6F4B802117
:102A700049000A431A6531E07B689B68002B0CD142
:102A80006A4B1A6D694B6B490A401A65674B1A6DA0
:102A9000664B6A490A401A6520E07B689A68A02361
:102AA000DB009A420ED1614B1A6D604B8021C90048
:102AB0000A431A655D4B1A6D5C4B802149000A433D
:102AC0001A650BE0594B1A6D584B5A490A401A6562
:102AD000564B1A6D554B59490A401A657B689B68DD
:102AE000002B15D0FFF752F803007B6109E0FFF7D8
:102AF0004DF802007B69D31A514A934201D903234E
:102B0000CAE04A4B1A6D80239B001340EFD014E0BB
:102B1000FFF73CF803007B6109E0FFF737F802009C
:102B20007B69D31A464A934201D90323B4E03F4B51
:102B30001A6D80239B001340EFD12323FB181B78D1
:102B4000012B05D1394B9A6B384B3E490A409A63A9
:102B50007B685B6A002B00D19DE0FB690C2B00D1E8
:102B600076E07B685B6A022B45D1304B1A682F4BAD
:102B700035490A401A60FFF709F803007B6108E055
:102B8000FFF704F802007B69D31A022B01D9032353
:102B900082E0264B1A6880239B041340F0D1234B1C
:102BA000DB682A4A134019007B689A6A7B68DB6AF3
:102BB0001A437B681B6B1A431C4B0A43DA601B4B9E
:102BC0001A681A4B802149040A431A60FEF7DEFF97
:102BD00003007B6108E0FEF7D9FF02007B69D31A8E
:102BE000022B01D9032357E0104B1A6880239B0462
:102BF0001340F0D04FE00D4B1A680C4B12490A40BD
:102C00001A60FEF7C3FF03007B6108E0FEF7BEFF1A
:102C100002007B69D31A022B01D903233CE0034B4A
:102C20001A6880239B041340F0D134E00010024066
:102C3000FF1FFFFFFFFEFFFF00700040FFFBFFFFD5
:102C400088130000FFFFFFEFFFFFFFFEFFFF02FF03
:102C50007B685B6A012B01D101231DE0104BDB680F
:102C6000BB61BA6980235B021A407B689B6A9A4207
:102C70000FD1BA69F0239B031A407B68DB6A9A4242
:102C800007D1BA69C0231B041A407B681B6B9A42A8
:102C900001D0012300E000231800BD460AB0B0BDFA
:102CA00000100240B0B584B000AF786039607B6836
:102CB000002B01D1012328E1964B1B680122134010
:102CC0003A689A421ED9934B1B680122934319001C
:102CD000904B3A680A431A60FEF758FF0300FB6006
:102CE00009E0FEF753FF0200FB68D31A8A4A9342B9
:102CF00001D9032309E1874B1B68012213403A687D
:102D00009A42EED17B681B680222134009D0834BA4
:102D1000DB68F022934319007B689A687F4B0A4373
:102D2000DA607B681B680122134000D189E07B6870
:102D30005B68022B07D1794B1A6880239B021340F2
:102D400020D10123E1E07B685B68032B07D1734B43
:102D50001A6880239B04134014D10123D5E07B68BB
:102D60005B68012B06D16D4B1B680422134009D10F
:102D70000123CAE0694B1A6880239B00134001D1EC
:102D80000123C2E0654BDB680322934319007B6893
:102D90005A68624B0A43DA60FEF7F8FE0300FB60F4
:102DA0007B685B68022B11D109E0FEF7EFFE0200A1
:102DB000FB68D31A584A934201D90323A5E0574B25
:102DC000DB680C221340082BEFD13AE07B685B688C
:102DD000032B11D109E0FEF7D9FE0200FB68D31ADC
:102DE0004D4A934201D903238FE04C4BDB680C2200
:102DF00013400C2BEFD124E07B685B68012B1BD1C7
:102E000009E0FEF7C3FE0200FB68D31A424A934270
:102E100001D9032379E0414BDB680C221340042BDA
:102E2000EFD10EE0FEF7B2FE0200FB68D31A3A4A79
:102E3000934201D9032368E0384BDB680C2213402E
:102E4000F0D1344B1B68012213403A689A421ED2DB
:102E5000304B1B680122934319002E4B3A680A43FA
:102E60001A60FEF793FE0300FB6009E0FEF78EFE9A
:102E70000200FB68D31A284A934201D9032344E095
:102E8000244B1B68012213403A689A42EED17B68BA
:102E90001B680422134009D0204BDB68204A1340F2
:102EA00019007B68DA681D4B0A43DA607B681B688F
:102EB000082213400AD0194BDB681A4A1340190044
:102EC0007B681B69DA00154B0A43DA6000F032F8C0
:102ED0000100124BDB681B090F221340124AD35C1E
:102EE0000A00DA40114B1A60114B1B680B257C1944
:102EF0001800FEF705FE030023707B191B78002BDA
:102F000002D07B191B7800E000231800BD4604B0F6
:102F1000B0BDC046002002408813000000100240EF
:102F2000FFF8FFFFFFC7FFFFF84B00080400002079
:102F30000800002080B586B000AF3C4BDB68FB602A
:102F4000FB680C2213400C2B13D05CD8042B02D04E
:102F5000082B0BD057E0354B1B681022134002D0D2
:102F6000334B3B615DE0334B3B615AE0324B3B619D
:102F700057E0FB689B0C0F221340304AD35CBB60C8
:102F8000FB689B0D0322134001337B60274BDA68FB
:102F900080235B0213400FD0B9680A005201521A15
:102FA00093019B1ADB005B185B0279681800FDF740
:102FB000ABF803007B6123E01C4B1B68102213401D
:102FC0000FD0B9680A005201521A93019B1ADB0014
:102FD0005B181B0279681800FDF796F803007B6107
:102FE0000EE0B9680A005201521A93019B1ADB00E5
:102FF0005B189B0279681800FDF786F803007B6177
:103000007B693B610DE0094B5B685B0B072213405A
:103010003B603B680133802212029A4013003B61FF
:10302000C0463B691800BD4606B080BD0010024096
:1030300000093D000024F40000127A00084C00084A
:1030400080B586B000AF786017203B1800221A7058
:103050007B681B682022134000D1C7E0844B9A6B29
:1030600080235B05134009D1814B9A6B804B8021F3
:1030700049050A439A633B1801221A707D4B1A686E
:1030800080235B0013401AD17A4B1A68794B802158
:1030900049000A431A60FEF779FD03003B6108E02E
:1030A000FEF774FD02003B69D31A642B01D9032398
:1030B000D9E0704B1A6880235B001340F0D06C4B52
:1030C0001A68C0239B031340FB607B685A68C023C7
:1030D0009B031340FA689A4213D07B685A68C02356
:1030E0009B021A40C0239B029A420AD1604B1A6885
:1030F00080239B021A4080239B029A4201D1012324
:10310000B1E05B4B1A6DC0239B021340FB60FB6870
:10311000002B3BD07B685A68C0239B021340FA689F
:103120009A4233D07B681B68202213402ED0504B2C
:103130001B6D514A1340FB604D4B1A6D4C4B802167
:1031400009030A431A654A4B1A6D494B4B490A4019
:103150001A65474BFA681A65FA6880235B001340CA
:1031600014D0FEF713FD03003B6109E0FEF70EFDEE
:1031700002003B69D31A424A934201D9032372E009
:103180003B4B1A6D80239B001340EFD07B681B687C
:10319000202213401FD07B685A68C0239B021A402C
:1031A000C0239B029A420CD1314B1B68354A134015
:1031B00019007B685A68C0239B031A402C4B0A43B2
:1031C0001A602B4B196D7B685A68C0239B021A400A
:1031D000274B0A431A651723FB181B78012B05D1CF
:1031E000234B9A6B224B28490A409A637B681B68E1
:1031F0000222134009D01E4BDB6C0C2293431900B2
:103200007B689A681A4B0A43DA647B681B6804225D
:10321000134009D0164BDB6C1C4A134019007B6825
:10322000DA68134B0A43DA647B681B680822134090
:1032300009D00F4BDB6C164A134019007B681A69E2
:103240000B4B0A43DA647B681B688022134009D069
:10325000074BDB6C0F4A134019007B685A69044B1B
:103260000A43DA6400231800BD4606B080BDC0469C
:103270000010024000700040FFFFFCFFFFFFF7FF5F
:1032800088130000FFFFCFFFFFFFFFEFFFF3FFFFFB
:10329000FFCFFFFFFFFFF3FFB0B584B000AF786052
:1032A0000F23FB1801221A707B68002B01D1012328
:1032B00088E07B6821229B5CDBB2002B07D17B6816
:1032C0002022002199547B681800FEF7D5FA7B680C
:1032D0002122022199547B681B68DB68102213406D
:1032E000102B5FD07B681B68CA225A627B681B6800
:1032F00053225A620F257C197B68180000F0CEFC1F
:103300000300237028003B181B78002B2CD17B680E
:103310001B689A687B681B682C490A409A607B6826
:103320001B6899687B685A687B681B691A437B68CD
:103330009B691A437B681B680A439A607B681B6819
:103340007A68D2681A617B681B6819697B689B6818
:103350001A047B681B680A431A613C187B681800D2
:1033600000F0E0FC030023700F23FB181B78002BF8
:1033700013D17B681B68DA6C7B681B6803218A4366
:10338000DA647B681B68D96C7B68DA697B685B6987
:103390001A437B681B680A43DA647B681B68FF2258
:1033A0005A6203E00F23FB1800221A700F23FB1848
:1033B0001B78002B03D17B682122012199540F2314
:1033C000FB181B781800BD4604B0B0BDBFFF8FFFCF
:1033D000B0B586B000AFF860B9607A6000237B6159
:1033E000FB6820229B5C012B01D1022392E0FB6849
:1033F000202201219954FB682122022199547B68E3
:10340000002B25D1FB681B689B684022134002D12A
:10341000BB680022DA70BB681B78180000F0ACFCB7
:1034200003001C04BB685B78180000F0A5FC0300D7
:103430001B021C43BB689B78180000F09DFC030036
:1034400022001A43BB68DB789B0513437B6117E0BE
:10345000FB681B689B684022134002D1BB680022B6
:10346000DA70BB681B781A04BB685B781B021343D5
:10347000BA6892781A43BB68DB789B0513437B617B
:10348000FB681B68CA225A62FB681B6853225A6297
:1034900013257C19FB68180000F000FC0300237062
:1034A00028003B181B78002B20D1FB681B687A6929
:1034B0001A490A401A60FB681B689A68FB681B6817
:1034C00017490A409A60FB681B689968BB68DA680C
:1034D000BB681B691A43FB681B680A439A603C1867
:1034E000FB68180000F01EFC030023701323FB1878
:1034F0001B78002B03D1FB68212201219954FB6822
:103500001B68FF225A62FB68202200219954132372
:10351000FB181B781800BD4606B0B0BD7F7F7F004A
:10352000FFFFFBFF80B586B000AFF860B9607A603E
:1035300000237B61FB681B689A6ABB685A60FB6862
:103540001B681B695B045A0CBB689A60FB681B68AC
:103550001B68224A13407B617B691B0CDBB23F2254
:103560001340DAB2BB681A707B691B0ADBB27F2298
:103570001340DAB2BB685A707B69DBB27F2213401A
:10358000DAB2BB689A707B699B0DDBB201221340F3
:10359000DAB2BB68DA707B68002B1AD1BB681B7883
:1035A000180000F00AFC03001A00BB681A70BB6820
:1035B0005B78180000F001FC03001A00BB685A7029
:1035C000BB689B78180000F0F8FB03001A00BB688A
:1035D0009A7000231800BD4606B080BD7F7F7F0033
:1035E000B0B586B000AFF860B9607A6000237B6147
:1035F000FB6820229B5C012B01D102237EE0FB684B
:10360000202201219954FB682122022199547B68D0
:10361000002B0ED1BB685B781A001023134008D032
:10362000BB685B7810229343DBB20A33DAB2BB6823
:103630005A707B68002B1CD1BB68DB78180000F047
:103640009BFB03001C04BB685B78180000F094FB34
:1036500003001B021C43BB689B78180000F08CFB26
:10366000030022001A43BB681B785B0313437B6192
:103670000EE0BB68DB781A04BB685B781B0213435F
:10368000BA6892781A43BB681B785B0313437B616B
:10369000FB681B68CA225A62FB681B6853225A6285
:1036A00013257C19FB68180000F0F8FA030023705A
:1036B00028003B181B78002B0CD1FB681B687A692B
:1036C00010490A405A603C18FB68180000F02AFBB9
:1036D000030023701323FB181B78002B03D1FB6816
:1036E000212201219954FB681B68FF225A62FB6862
:1036F0002022002199541323FB181B781800BD4683
:1037000006B0B0BD3FFFFF0080B586B000AFF860E7
:10371000B9607A6000237B61FB681B685B68214AA3
:1037200013407B617B691B0CDAB2BB68DA707B6982
:103730001B0ADBB21F221340DAB2BB685A707B69E6
:10374000DBB23F221340DAB2BB689A707B695B0B35
:10375000DBB207221340DAB2BB681A707B68002B19
:103760001AD1BB68DB78180000F027FB03001A00B1
:10377000BB68DA70BB685B78180000F01EFB0300C2
:103780001A00BB685A70BB689B78180000F015FBE4
:1037900003001A00BB689A7000231800BD4606B0EB
:1037A00080BDC0463FFFFF0090B589B000AFF86014
:1037B000B9607A60A74B1B68FA22D1011800FCF7A8
:1037C000A3FC03001A0013005B019B1A9B009B18CB
:1037D000DB007B610023FB610023BB61FB682022CF
:1037E0009B5C012B01D1022330E1FB6820220121E7
:1037F0009954FB682122022199547B68002B36D111
:10380000FB681B689B684022134002D1BB68002202
:10381000DA70BB681B78180000F0AEFA03001C04D5
:10382000BB685B78180000F0A7FA03001B021C437A
:10383000BB689B78180000F09FFA030022001A432F
:10384000BB68DB789B051A431400BB6820229B5C95
:10385000180000F091FA03001B0622001A43BB680F
:10386000DB691A43BB685B691343FB6122E0FB68B9
:103870001B689B684022134002D1BB680022DA70AB
:10388000BB681B781A04BB685B781B021343BA68D9
:1038900092781A43BB68DB789B051A43BB682021EA
:1038A0005B5C1B061A43BB68DB691A43BB685B6938
:1038B0001343FB61BB685A68BB689B691343BB61D8
:1038C000FB681B68CA225A62FB681B6853225A6253
:1038D000BB685A6A80235B009A4246D1FB681B682A
:1038E0009A68FB681B685C490A409A60FB681B6821
:1038F000DB68FF221A40FB681B6858490A43DA60FC
:103900007B69013B7B617B69002B0DD1FB681B68E8
:10391000FF225A62FB68212203219954FB6820226E
:1039200000219954032391E0FB681B68DB680122A6
:103930001340E5D0FB681B68FA69DA61FB681B6815
:10394000BA695A64FB681B689A68FB681B68802127
:1039500049000A439A60FB681B689A68FB681B6809
:10396000802149010A439A6055E0FB681B689A6808
:10397000FB681B683A490A409A60FB681B68DB6871
:10398000FF221A40FB681B6836490A43DA60314B54
:103990001B68FA22D1011800FCF7B6FB03001A00DD
:1039A00013005B019B1A9B009B18DB007B617B690A
:1039B000013B7B617B69002B0DD1FB681B68FF22FB
:1039C0005A62FB68212203219954FB6820220021BE
:1039D000995403233AE0FB681B68DB68022213401A
:1039E000E5D0FB681B68FA691A62FB681B68BA6954
:1039F0009A64FB681B689A68FB681B6880218900D1
:103A00000A439A60FB681B689A68FB681B68802100
:103A100089010A439A60144B1A68134B802189026A
:103A20000A431A60104B9A680F4B802189020A439F
:103A30009A60FB681B68FF225A62FB682122012101
:103A40009954FB6820220021995400231800BD4698
:103A500009B090BD04000020FFFEFFFF7FFEFFFFC6
:103A6000FFFDFFFF7FFDFFFF0004014080B584B034
:103A700000AF786039600023FB607B6820229B5C8C
:103A8000012B01D1022386E07B6820220121995479
:103A90007B682122022199547B681B68CA225A62E2
:103AA0007B681B6853225A623A6880235B009A4203
:103AB00032D17B681B689A687B681B6838490A406A
:103AC0009A607B681B689A687B681B6835490A4066
:103AD0009A60FEF75BF80300FB6016E0FEF756F80D
:103AE0000200FB68D21AFA239B009A420DD97B6828
:103AF0001B68FF225A627B682122032199547B684C
:103B0000202200219954032345E07B681B68DB6871
:103B100001221340E2D031E07B681B689A687B6821
:103B20001B6821490A409A607B681B689A687B6819
:103B30001B681E490A409A60FEF728F80300FB60E4
:103B400016E0FEF723F80200FB68D21AFA239B0066
:103B50009A420DD97B681B68FF225A627B6821223A
:103B6000032199547B68202200219954032312E0F9
:103B70007B681B68DB6802221340E2D07B681B680D
:103B8000FF225A627B682122012199547B682022FE
:103B90000021995400231800BD4604B080BDC046E2
:103BA000FFFEFFFFFFEFFFFFFFFDFFFFFFDFFFFF58
:103BB00080B582B000AF7860214B802292025A61BA
:103BC0007B681B689A6880235B01134014D07B6874
:103BD0001B68DA6880235B0013400DD07B681B688C
:103BE000DB68FF221A407B681B6816490A43DA60CB
:103BF0007B681800FDF7ECFD7B681B689A688023E2
:103C00009B01134014D07B681B68DA6880239B00FB
:103C100013400DD07B681B68DB68FF221A407B686D
:103C20001B6809490A43DA607B68180000F0E4F871
:103C30007B68212201219954C046BD4602B080BD57
:103C4000000401407FFEFFFF7FFDFFFF80B584B0D1
:103C500000AF78600023FB607B681B680E4ADA6067
:103C6000FDF794FF0300FB600AE0FDF78FFF020001
:103C7000FB68D21AFA239B009A4201D9032306E07B
:103C80007B681B68DB6820221340EED000231800FD
:103C9000BD4604B080BDC0465FFF010080B584B062
:103CA00000AF78600023BB600F23FB1800221A705E
:103CB0007B681B68DB68402213402CD17B681B6843
:103CC000DA687B681B6880210A43DA60FDF75EFFD3
:103CD0000300BB6014E0FDF759FF0200BB68D21A75
:103CE0000F203B18391809781970FA239B009A4263
:103CF00006D97B682122042199543B1801221A70AD
:103D00007B681B68DB684022134004D10F23FB183B
:103D10001B78012BDFD10F23FB181B781800BD4641
:103D200004B080BD90B585B000AF78600F243B191A
:103D300000221A707B681B68DA687B681B68802128
:103D40008A43DA607B681B689B68202213400CD191
:103D50007B681800FFF77AFF031E06D07B682122DC
:103D6000042199543B1901221A700F23FB181B7868
:103D70001800BD4605B090BD80B584B000AF02000C
:103D8000FB1D1A700023FB6007E0FB680133FB603A
:103D9000FB1DFA1D12780A3A1A70FB1D1B78092BBD
:103DA000F3D8FB68DBB21B01DAB2FB1D1B781343AF
:103DB000DBB21800BD4604B080BD80B584B000AF52
:103DC0000200FB1D1A700023FB60FB1D1B781B0902
:103DD000DBB21A0013009B009B185B00FB60FB68C2
:103DE000DAB2FB1D1B780F210B40DBB2D318DBB21C
:103DF0001800BD4604B080BD80B582B000AF7860C9
:103E0000C046BD4602B080BD80B582B000AF7860CC
:103E10007B68002B01D1012332E07B6839229B5C57
:103E2000DBB2002B07D17B683822002199547B68D4
:103E30001800FDF741FD7B683922022199547B6807
:103E40001A687B6804331900100000F017FC7B68C7
:103E50003E22012199547B683A22012199547B68C2
:103E60003B22012199547B683C22012199547B68B3
:103E70003D22012199547B68392201219954002364
:103E80001800BD4602B080BD80B584B000AF786038
:103E90007B6839229B5CDBB2012B01D0012331E02E
:103EA0007B683922022199547B681B68DA687B6839
:103EB0001B6801210A43DA607B681A688023DB05EE
:103EC0009A4204D07B681B68104A934211D17B68E8
:103ED0001B689B6807221340FB60FB68062B10D011
:103EE0007B681B681A687B681B6801210A431A609B
:103EF00007E07B681B681A687B681B6801210A431E
:103F00001A6000231800BD4604B080BD00080140BF
:103F100080B582B000AF78607B681B68DA687B6828
:103F20001B6801218A43DA607B681B681B6A0A4AA6
:103F3000134007D17B681B681A687B681B680121E6
:103F40008A431A607B6839220121995400231800A2
:103F5000BD4602B080BDC0461111000080B582B0E0
:103F600000AF78607B68002B01D1012332E07B68D1
:103F700039229B5CDBB2002B07D17B683822002101
:103F800099547B68180000F029F87B6839220221D7
:103F900099547B681A687B6804331900100000F09C
:103FA0006DFB7B683E22012199547B683A220121F6
:103FB00099547B683B22012199547B683C22012162
:103FC00099547B683D22012199547B683922012153
:103FD000995400231800BD4602B080BD80B582B060
:103FE00000AF7860C046BD4602B080BD80B584B0E9
:103FF00000AF786039603B68002B08D17B683A22BB
:104000009B5CDBB2013B5A1E9341DBB21FE03B6875
:10401000042B08D17B683B229B5CDBB2013B5A1E20
:104020009341DBB213E03B68082B08D17B683C224C
:104030009B5CDBB2013B5A1E9341DBB207E07B681D
:104040003D229B5CDBB2013B5A1E9341DBB2002B4D
:1040500001D0012348E03B68002B04D17B683A2261
:104060000221995413E03B68042B04D17B683B2266
:10407000022199540BE03B68082B04D17B683C2259
:104080000221995403E07B683D22022199547B6808
:104090001B6839680122180000F0DEFC7B681A6892
:1040A0008023DB059A4204D07B681B68104A934248
:1040B00011D17B681B689B6807221340FB60FB687B
:1040C000062B10D07B681B681A687B681B6801216F
:1040D0000A431A6007E07B681B681A687B681B68E4
:1040E00001210A431A6000231800BD4604B080BDB8
:1040F0000008014080B582B000AF786039607B680D
:104100001B6839680022180000F0A6FC7B681B6859
:104110001B6A164A134007D17B681B681A687B68C4
:104120001B6801218A431A603B68002B04D17B681D
:104130003A220121995413E03B68042B04D17B6897
:104140003B22012199540BE03B68082B04D17B688A
:104150003C220121995403E07B683D2201219954BE
:1041600000231800BD4602B080BDC04611110000FA
:1041700080B584B000AF78607B681B68DB68FB604B
:104180007B681B681B69BB60BB680222134021D09F
:10419000FB68022213401DD07B681B680322524239
:1041A0001A617B6801221A767B681B689B6903226F
:1041B000134004D07B68180000F048FA07E07B68E1
:1041C000180000F03BFA7B68180000F047FA7B68A3
:1041D00000221A76BB680422134022D0FB68042216
:1041E00013401ED07B681B68052252421A617B680F
:1041F00002221A767B681B689A69C0239B001340D1
:1042000004D07B68180000F021FA07E07B681800F2
:1042100000F014FA7B68180000F020FA7B68002296
:104220001A76BB680822134021D0FB68082213408D
:104230001DD07B681B68092252421A617B680422E8
:104240001A767B681B68DB690322134004D07B6805
:10425000180000F0FBF907E07B68180000F0EEF9A9
:104260007B68180000F0FAF97B6800221A76BB68B8
:104270001022134022D0FB68102213401ED07B680E
:104280001B68112252421A617B6808221A767B68E9
:104290001B68DA69C0239B00134004D07B681800B8
:1042A00000F0D4F907E07B68180000F0C7F97B68DC
:1042B000180000F0D3F97B6800221A76BB6801224F
:1042C00013400CD0FB680122134008D07B681B68A8
:1042D000022252421A617B681800FDF71BFABB6884
:1042E000402213400CD0FB684022134008D07B686A
:1042F0001B68412252421A617B68180000F0B6F92F
:10430000C046BD4604B080BD80B586B000AFF86041
:10431000B9607A601723FB1800221A70FB683822F4
:104320009B5C012B01D10223ADE0FB683822012107
:1043300099547B680C2B00D176E07B680C2B00D95C
:1043400095E07B68082B4ED07B68082B00D98EE067
:104350007B68002B03D07B68042B21D087E0FB68AF
:104360001B68BA681100180000F0D8F9FB681B68D8
:104370009A69FB681B6808210A439A61FB681B68FD
:104380009A69FB681B6804218A439A61FB681B6871
:104390009969BB68DA68FB681B680A439A616BE03D
:1043A000FB681B68BA681100180000F0F3F9FB689D
:1043B0001B689A69FB681B68802109010A439A619E
:1043C000FB681B689A69FB681B6831490A409A615F
:1043D000FB681B689969BB68DB681A02FB681B688D
:1043E0000A439A6148E0FB681B68BA68110018002C
:1043F00000F012FAFB681B68DA69FB681B68082189
:104400000A43DA61FB681B68DA69FB681B680421F0
:104410008A43DA61FB681B68D969BB68DA68FB68A4
:104420001B680A43DA6127E0FB681B68BA68110061
:10443000180000F031FAFB681B68DA69FB681B683A
:10444000802109010A43DA61FB681B68DA69FB68AD
:104450001B680F490A40DA61FB681B68D969BB68B1
:10446000DB681A02FB681B680A43DA6104E0172361
:10447000FB1801221A70C046FB68382200219954AB
:104480001723FB181B781800BD4606B080BDC04638
:10449000FFFBFFFF80B584B000AF786039600F2369
:1044A000FB1800221A707B6838229B5C012B01D11B
:1044B0000223BCE07B683822012199547B683922B1
:1044C000022199547B681B689B68BB60BB6877229C
:1044D0009343BB60BB68584A1340BB607B681B6852
:1044E000BA689A603B681B6880229201934240D070
:1044F00080229201934200D988E0802252019342A7
:1045000000D188E080225201934200D97EE0702BD6
:1045100018D000D97AE0602B4FD000D976E0502B2C
:104520003BD000D972E0402B57D000D96EE0302B41
:1045300063D06BD8202B60D068D8002B5DD0102BB7
:104540005BD063E07B6818683B6899683B685A6891
:104550003B68DB6800F060FA7B681B689B68BB60A7
:10456000BB6877221343BB607B681B68BA689A609C
:1045700052E07B6818683B6899683B685A683B68FA
:10458000DB6800F049FA7B681B689A687B681B68E7
:104590008021C9010A439A603EE07B6818683B6845
:1045A00059683B68DB681A0000F0BCF97B681B683F
:1045B0005021180000F016FA2EE07B6818683B685E
:1045C00059683B68DB681A0000F0DAF97B681B6801
:1045D0006021180000F006FA1EE07B6818683B684E
:1045E00059683B68DB681A0000F09CF97B681B681F
:1045F0004021180000F0F6F90EE07B681A683B686D
:104600001B681900100000F0EDF905E00F23FB18FE
:1046100001221A7000E0C0467B68392201219954BA
:104620007B683822002199540F23FB181B7818004F
:10463000BD4604B080BDC046FF00FFFF80B582B01C
:1046400000AF7860C046BD4602B080BD80B582B084
:1046500000AF7860C046BD4602B080BD80B582B074
:1046600000AF7860C046BD4602B080BD80B582B064
:1046700000AF7860C046BD4602B080BD80B584B052
:1046800000AF786039607B681B68FB607A688023C4
:10469000DB059A4203D07B681E4A934208D1FB682F
:1046A00070229343FB603B685B68FA681343FB60CE
:1046B0007A688023DB059A4203D07B68154A9342CF
:1046C00008D1FB68144A1340FB603B68DB68FA685A
:1046D0001343FB60FB68802293431A003B681B690D
:1046E0001343FB603B689A687B68DA623B681A6830
:1046F0007B689A627B681B6804221A437B681A6095
:104700007B6801225A617B68FA681A60C046BD4620
:1047100004B080BD00080140FFFCFFFF80B586B0FB
:1047200000AF786039607B681B6A7B617B681B6ABD
:10473000012293431A007B681A627B685B683B61C5
:104740007B689B69FB60FB6870229343FB60FB689E
:1047500003229343FB603B681B68FA681343FB60CA
:104760007B69022293437B613B689B687A691343B0
:104770007B617B683A695A607B68FA689A613B683A
:104780005A687B685A637B687A691A62C046BD467C
:1047900006B080BD80B586B000AF786039607B68B8
:1047A0001B6A7B617B681B6A102293431A007B683B
:1047B0001A627B685B683B617B689B69FB60FB6896
:1047C000134A1340FB60FB68124A1340FB603B68CE
:1047D0001B681B02FA681343FB607B69202293432A
:1047E0007B613B689B681B017A6913437B617B6833
:1047F0003A695A607B68FA689A613B685A687B68D4
:104800009A637B687A691A62C046BD4606B080BD6D
:10481000FF8FFFFFFFFCFFFF80B586B000AF786021
:1048200039607B681B6A7B617B681B6A184A1A4087
:104830007B681A627B685B683B617B68DB69FB6055
:10484000FB6870229343FB60FB6803229343FB6089
:104850003B681B68FA681343FB607B690D4A134091
:104860007B613B689B681B027A6913437B617B68B1
:104870003A695A607B68FA68DA613B685A687B6813
:10488000DA637B687A691A62C046BD4606B080BDAD
:10489000FFFEFFFFFFFDFFFF80B586B000AF786031
:1048A00039607B681B6A7B617B681B6A194A1A4006
:1048B0007B681A627B685B683B617B68DB69FB60D5
:1048C000FB68154A1340FB60FB68144A1340FB6009
:1048D0003B681B681B02FA681343FB607B69104A44
:1048E00013407B613B689B681B037A6913437B61C0
:1048F0007B683A695A607B68FA68DA613B685A6893
:104900007B681A647B687A691A62C046BD4606B045
:1049100080BDC046FFEFFFFFFF8FFFFFFFFCFFFFE3
:10492000FFDFFFFF80B586B000AFF860B9607A6046
:10493000FB681B6A7B61FB681B6A012293431A00B8
:10494000FB681A62FB689B693B613B69F0229343F9
:104950003B617B681B013A6913433B617B690A2217
:1049600093437B617A69BB6813437B61FB683A6957
:104970009A61FB687A691A62C046BD4606B080BD7E
:1049800080B586B000AFF860B9607A60FB681B6ADA
:104990007B61FB681B6A102293431A00FB681A6252
:1049A000FB689B693B613B690D4A13403B617B6837
:1049B0001B033A6913433B617B69A02293437B61EC
:1049C000BB681B017A6913437B61FB683A699A6192
:1049D000FB687A691A62C046BD4606B080BDC04613
:1049E000FF0FFFFF80B584B000AF786039607B684F
:1049F0009B68FB60FB6870229343FB603A68FB682E
:104A0000134307221343FB607B68FA689A60C04631
:104A1000BD4604B080BD000080B586B000AFF86030
:104A2000B9607A603B60FB689B687B617B69094A7F
:104A300013407B613B681A027B681A43BB681343CF
:104A40007A6913437B61FB687A699A60C046BD4608
:104A500006B080BDFF00FFFF80B586B000AFF860F4
:104A6000B9607A60BB681F22134001229A4013008C
:104A70007B61FB681B6A7A69D2431A40FB681A6241
:104A8000FB681A6ABB681F210B40796899400B00CC
:104A90001A43FB681A62C046BD4606B080BD0000DE
:104AA00080B584B000AF786039607B6838229B5C49
:104AB000012B01D102233DE07B683822012199546A
:104AC0007B683922022199547B681B685B68FB6014
:104AD0007B681B689B68BB60FB6870229343FB602C
:104AE0003B681B68FA681343FB607B681B68FA68C5
:104AF0005A607B681A688023DB059A4204D07B6881
:104B00001B680E4A93420CD1BB6880229343BB6062
:104B10003B685B68BA681343BB607B681B68BA6814
:104B20009A607B683922012199547B6838220021E0
:104B3000995400231800BD4604B080BD0008014010
:104B400003008218934200D1704719700133F9E7CE
:104B500070B500260C4C0D4D641BA410A64209D163
:104B6000002600F019F80A4C0A4D641BA410A64256
:104B700005D170BDB300EB5898470136EEE7B3009E
:104B8000EB5898470136F2E7144C0008144C000823
:104B9000184C0008144C0008F8B5C046F8BC08BC16
:104BA0009E467047F8B5C046F8BC08BC9E467047A4
:104BB00056070008160700081E0700082607000809
:104BC0002E070008360700083E07000846070008C1
:104BD0004E0700086408000884070008A0070008C2
:104BE000BC070008D8070008F407000810080008F0
:104BF0002C08000848080008000000000000000021
:104C00000102030406070809030406080C10182013
:044C10003000000070
:044C1400E9000008AB
:044C1800C1000008CF
:104C1C000200000000002000040000000100000061
:0400000508001A3D98
:00000001FF
